{
    "contractName": "PriceOracle",
    "abi": [
        {
            "inputs": [
                {
                    "internalType": "uint256",
                    "name": "chainId",
                    "type": "uint256"
                },
                {
                    "internalType": "address",
                    "name": "_spookyRouter",
                    "type": "address"
                },
                {
                    "internalType": "address",
                    "name": "_solidlyRouter",
                    "type": "address"
                },
                {
                    "internalType": "address",
                    "name": "_curveRouter",
                    "type": "address"
                },
                {
                    "internalType": "address",
                    "name": "_iUniswapLPOracleFactory",
                    "type": "address"
                }
            ],
            "stateMutability": "nonpayable",
            "type": "constructor"
        },
        {
            "anonymous": false,
            "inputs": [
                {
                    "indexed": true,
                    "internalType": "address",
                    "name": "previousOwner",
                    "type": "address"
                },
                {
                    "indexed": true,
                    "internalType": "address",
                    "name": "newOwner",
                    "type": "address"
                }
            ],
            "name": "OwnershipTransferred",
            "type": "event"
        },
        {
            "inputs": [],
            "name": "CURVE_ROUTER",
            "outputs": [
                {
                    "internalType": "address",
                    "name": "",
                    "type": "address"
                }
            ],
            "stateMutability": "view",
            "type": "function"
        },
        {
            "inputs": [],
            "name": "SOLIDLY_ROUTER",
            "outputs": [
                {
                    "internalType": "address",
                    "name": "",
                    "type": "address"
                }
            ],
            "stateMutability": "view",
            "type": "function"
        },
        {
            "inputs": [],
            "name": "SPOOKY_ROUTER",
            "outputs": [
                {
                    "internalType": "address",
                    "name": "",
                    "type": "address"
                }
            ],
            "stateMutability": "view",
            "type": "function"
        },
        {
            "inputs": [
                {
                    "internalType": "uint256",
                    "name": "",
                    "type": "uint256"
                }
            ],
            "name": "chainRouters",
            "outputs": [
                {
                    "internalType": "address",
                    "name": "SPOOKY_ROUTER",
                    "type": "address"
                },
                {
                    "internalType": "address",
                    "name": "SOLIDLY_ROUTER",
                    "type": "address"
                },
                {
                    "internalType": "address",
                    "name": "CURVE_ROUTER",
                    "type": "address"
                }
            ],
            "stateMutability": "view",
            "type": "function"
        },
        {
            "inputs": [
                {
                    "internalType": "address",
                    "name": "tokenIn",
                    "type": "address"
                },
                {
                    "internalType": "address",
                    "name": "tokenOut",
                    "type": "address"
                },
                {
                    "internalType": "uint256",
                    "name": "amountIn",
                    "type": "uint256"
                },
                {
                    "internalType": "uint256",
                    "name": "chainId",
                    "type": "uint256"
                }
            ],
            "name": "findOptimalSwap",
            "outputs": [
                {
                    "internalType": "string",
                    "name": "",
                    "type": "string"
                },
                {
                    "internalType": "uint256",
                    "name": "amount",
                    "type": "uint256"
                }
            ],
            "stateMutability": "view",
            "type": "function"
        },
        {
            "inputs": [],
            "name": "getChainID",
            "outputs": [
                {
                    "internalType": "uint256",
                    "name": "",
                    "type": "uint256"
                }
            ],
            "stateMutability": "view",
            "type": "function"
        },
        {
            "inputs": [
                {
                    "internalType": "uint256",
                    "name": "chainId",
                    "type": "uint256"
                }
            ],
            "name": "getCurveQuote",
            "outputs": [
                {
                    "internalType": "address",
                    "name": "",
                    "type": "address"
                }
            ],
            "stateMutability": "view",
            "type": "function"
        },
        {
            "inputs": [
                {
                    "internalType": "uint256",
                    "name": "chainId",
                    "type": "uint256"
                }
            ],
            "name": "getSolidlyQuote",
            "outputs": [
                {
                    "internalType": "address",
                    "name": "",
                    "type": "address"
                }
            ],
            "stateMutability": "view",
            "type": "function"
        },
        {
            "inputs": [
                {
                    "internalType": "address",
                    "name": "_lpToken",
                    "type": "address"
                },
                {
                    "internalType": "uint256",
                    "name": "_lpAmount",
                    "type": "uint256"
                }
            ],
            "name": "getUnderlyingPrice",
            "outputs": [
                {
                    "internalType": "uint256",
                    "name": "totalLpPrice",
                    "type": "uint256"
                }
            ],
            "stateMutability": "nonpayable",
            "type": "function"
        },
        {
            "inputs": [
                {
                    "internalType": "uint256",
                    "name": "chainId",
                    "type": "uint256"
                }
            ],
            "name": "getUniV2Quote",
            "outputs": [
                {
                    "internalType": "address",
                    "name": "",
                    "type": "address"
                }
            ],
            "stateMutability": "view",
            "type": "function"
        },
        {
            "inputs": [],
            "name": "iUniswapLPOracleFactory",
            "outputs": [
                {
                    "internalType": "contract IUniswapLPOracleFactory",
                    "name": "",
                    "type": "address"
                }
            ],
            "stateMutability": "view",
            "type": "function"
        },
        {
            "inputs": [],
            "name": "owner",
            "outputs": [
                {
                    "internalType": "address",
                    "name": "",
                    "type": "address"
                }
            ],
            "stateMutability": "view",
            "type": "function"
        },
        {
            "inputs": [],
            "name": "renounceOwnership",
            "outputs": [],
            "stateMutability": "nonpayable",
            "type": "function"
        },
        {
            "inputs": [
                {
                    "internalType": "uint256",
                    "name": "chainId",
                    "type": "uint256"
                },
                {
                    "internalType": "address",
                    "name": "_spookyRouter",
                    "type": "address"
                },
                {
                    "internalType": "address",
                    "name": "_solidlyRouter",
                    "type": "address"
                },
                {
                    "internalType": "address",
                    "name": "_curveRouter",
                    "type": "address"
                }
            ],
            "name": "setRouters",
            "outputs": [],
            "stateMutability": "nonpayable",
            "type": "function"
        },
        {
            "inputs": [
                {
                    "internalType": "address",
                    "name": "newOwner",
                    "type": "address"
                }
            ],
            "name": "transferOwnership",
            "outputs": [],
            "stateMutability": "nonpayable",
            "type": "function"
        },
        {
            "inputs": [
                {
                    "internalType": "address",
                    "name": "_lpToken",
                    "type": "address"
                },
                {
                    "internalType": "uint256",
                    "name": "_lpAmount",
                    "type": "uint256"
                }
            ],
            "name": "viewUnderlyingPrice",
            "outputs": [
                {
                    "internalType": "uint256",
                    "name": "totalLpPrice",
                    "type": "uint256"
                }
            ],
            "stateMutability": "view",
            "type": "function"
        }
    ],
    "bytecode": "608060405234801561001057600080fd5b50604051610faa380380610faa83398101604081905261002f916100d7565b604080516060810182526001600160a01b0395861681529385166020808601918252938616858301908152466000908152606990955291909320935184549086166001600160a01b031991821617855592516001850180549187169185169190911790555160029093018054938516938316939093179092556065805492909316911617905550610135565b80516001600160a01b03811681146100d257600080fd5b919050565b600080600080600060a086880312156100ef57600080fd5b855194506100ff602087016100bb565b935061010d604087016100bb565b925061011b606087016100bb565b9150610129608087016100bb565b90509295509295909350565b610e66806101446000396000f3fe608060405234801561001057600080fd5b50600436106101005760003560e01c80638da5cb5b11610097578063bf822c5511610066578063bf822c551461024f578063dbcbab5914610262578063e49b30da14610283578063f2fde38b1461029657600080fd5b80638da5cb5b146102055780639972e7c2146102165780639fa6b47a14610229578063bb75df5b1461023c57600080fd5b8063564b81ef116100d3578063564b81ef146101cf5780636b5da370146101d557806371256d69146101e8578063715018a6146101fb57600080fd5b80630e43d40b1461010557806318645b431461013557806318c870fc1461014857806320e18051146101ae575b600080fd5b606554610118906001600160a01b031681565b6040516001600160a01b0390911681526020015b60405180910390f35b606654610118906001600160a01b031681565b610184610156366004610a5c565b6069602052600090815260409020805460018201546002909201546001600160a01b03918216928216911683565b604080516001600160a01b039485168152928416602084015292169181019190915260600161012c565b6101c16101bc366004610a8a565b6102a9565b60405190815260200161012c565b466101c1565b6101186101e3366004610a5c565b61038b565b6101186101f6366004610a5c565b6103d3565b61020361041b565b005b6033546001600160a01b0316610118565b6101c1610224366004610a8a565b610451565b606754610118906001600160a01b031681565b61020361024a366004610ab6565b6104a1565b61011861025d366004610a5c565b610540565b610275610270366004610b09565b6105bd565b60405161012c929190610b4f565b606854610118906001600160a01b031681565b6102036102a4366004610bac565b610905565b60655460405163b04c6d3f60e01b81526001600160a01b038481166004830152600092839291169063b04c6d3f90602401602060405180830381865afa1580156102f7573d6000803e3d6000fd5b505050506040513d601f19601f8201168201806040525081019061031b9190610bd0565b90506000811161036b5760405162461bcd60e51b815260206004820152601660248201527550726963652073686f756c642062652076616c69642160501b60448201526064015b60405180910390fd5b620f42406103798285610bff565b6103839190610c1e565b949350505050565b600090815260696020908152604091829020825160608101845281546001600160a01b0390811682526001830154811693820193909352600290910154909116910181905290565b600090815260696020908152604091829020825160608101845281546001600160a01b0390811682526001830154811693820184905260029092015490911692019190915290565b6033546001600160a01b031633146104455760405162461bcd60e51b815260040161036290610c40565b61044f60006109a0565b565b60655460405163fc57d4df60e01b81526001600160a01b038481166004830152600092839291169063fc57d4df906024016020604051808303816000875af11580156102f7573d6000803e3d6000fd5b6033546001600160a01b031633146104cb5760405162461bcd60e51b815260040161036290610c40565b604080516060810182526001600160a01b0394851681529284166020808501918252928516848301908152600096875260699093529420915182546001600160a01b03199081169185169190911783559351600183018054861691851691909117905551600290910180549093169116179055565b6000804690506105706040518060400160405280600881526020016717d8da185a5b925960c21b815250826109f2565b600090815260696020908152604091829020825160608101845281546001600160a01b03908116808352600184015482169483019490945260029092015490911692019190915292915050565b606060008060006105cd856103d3565b604051635e1e632560e01b8152600481018890526001600160a01b038a8116602483015289811660448301529190911690635e1e6325906064016040805180830381865afa158015610623573d6000803e3d6000fd5b505050506040513d601f19601f820116820180604052508101906106479190610c75565b9150915060006106568661038b565b604051634e21df7560e01b81526001600160a01b038b811660048301528a81166024830152604482018a90529190911690634e21df75906064016040805180830381865afa1580156106ac573d6000803e3d6000fd5b505050506040513d601f19601f820116820180604052508101906106d09190610caa565b60408051600280825260608201835292945060009350839290916020830190803683370190505090508a8160008151811061070d5761070d610cee565b60200260200101906001600160a01b031690816001600160a01b031681525050898160018151811061074157610741610cee565b60200260200101906001600160a01b031690816001600160a01b03168152505061076a88610540565b6001600160a01b031663d06ca61f8a836040518363ffffffff1660e01b8152600401610797929190610d04565b600060405180830381865afa9250505080156107d557506040513d6000823e601f3d908101601f191682016040526107d29190810190610d5b565b60015b61080f573d808015610803576040519150601f19603f3d011682016040523d82523d6000602084013e610808565b606091505b505061083a565b806001825161081e9190610e19565b8151811061082e5761082e610cee565b60200260200101519250505b8185111561089f5784831115610874575050604080518082019091526005815264637572766560d81b6020820152945092506108fc915050565b505060408051808201909152600581526414d3d3125160da1b602082015294509192506108fc915050565b818311156108d1575050604080518082019091526005815264637572766560d81b6020820152945092506108fc915050565b5060408051808201909152600681526573706f6f6b7960d01b6020820152955093506108fc92505050565b94509492505050565b6033546001600160a01b0316331461092f5760405162461bcd60e51b815260040161036290610c40565b6001600160a01b0381166109945760405162461bcd60e51b815260206004820152602660248201527f4f776e61626c653a206e6577206f776e657220697320746865207a65726f206160448201526564647265737360d01b6064820152608401610362565b61099d816109a0565b50565b603380546001600160a01b038381166001600160a01b0319831681179093556040519116919082907f8be0079c531659141344cd1fd0a4f28419497f9722a3daafe3b4186f6b6457e090600090a35050565b610a378282604051602401610a08929190610b4f565b60408051601f198184030181529190526020810180516001600160e01b03166309710a9d60e41b179052610a3b565b5050565b80516a636f6e736f6c652e6c6f67602083016000808483855afa5050505050565b600060208284031215610a6e57600080fd5b5035919050565b6001600160a01b038116811461099d57600080fd5b60008060408385031215610a9d57600080fd5b8235610aa881610a75565b946020939093013593505050565b60008060008060808587031215610acc57600080fd5b843593506020850135610ade81610a75565b92506040850135610aee81610a75565b91506060850135610afe81610a75565b939692955090935050565b60008060008060808587031215610b1f57600080fd5b8435610b2a81610a75565b93506020850135610b3a81610a75565b93969395505050506040820135916060013590565b604081526000835180604084015260005b81811015610b7d5760208187018101516060868401015201610b60565b81811115610b8f576000606083860101525b50602083019390935250601f91909101601f191601606001919050565b600060208284031215610bbe57600080fd5b8135610bc981610a75565b9392505050565b600060208284031215610be257600080fd5b5051919050565b634e487b7160e01b600052601160045260246000fd5b6000816000190483118215151615610c1957610c19610be9565b500290565b600082610c3b57634e487b7160e01b600052601260045260246000fd5b500490565b6020808252818101527f4f776e61626c653a2063616c6c6572206973206e6f7420746865206f776e6572604082015260600190565b60008060408385031215610c8857600080fd5b8251915060208301518015158114610c9f57600080fd5b809150509250929050565b60008060408385031215610cbd57600080fd5b8251610cc881610a75565b6020939093015192949293505050565b634e487b7160e01b600052604160045260246000fd5b634e487b7160e01b600052603260045260246000fd5b6000604082018483526020604081850152818551808452606086019150828701935060005b81811015610d4e5784516001600160a01b031683529383019391830191600101610d29565b5090979650505050505050565b60006020808385031215610d6e57600080fd5b825167ffffffffffffffff80821115610d8657600080fd5b818501915085601f830112610d9a57600080fd5b815181811115610dac57610dac610cd8565b8060051b604051601f19603f83011681018181108582111715610dd157610dd1610cd8565b604052918252848201925083810185019188831115610def57600080fd5b938501935b82851015610e0d57845184529385019392850192610df4565b98975050505050505050565b600082821015610e2b57610e2b610be9565b50039056fea2646970667358221220ed254cf812eda34c51a20897eb5b807f416e59bf15eb4f21c0aa8256d317f6bf64736f6c634300080c0033",
    "sourcePath": "/Users/sunnyradadiya/Blockchain/GR13/Badger/Badger-GuestList-Factory/contracts/oracle/PriceOracle.sol",
    "compiler": {
        "name": "solc",
        "version": "0.8.12+commit.f00d7308"
    },
    "functionHashes": {
        "CURVE_ROUTER()": "e49b30da",
        "SOLIDLY_ROUTER()": "18645b43",
        "SPOOKY_ROUTER()": "9fa6b47a",
        "chainRouters(uint256)": "18c870fc",
        "findOptimalSwap(address,address,uint256,uint256)": "dbcbab59",
        "getChainID()": "564b81ef",
        "getCurveQuote(uint256)": "6b5da370",
        "getSolidlyQuote(uint256)": "71256d69",
        "getUnderlyingPrice(address,uint256)": "9972e7c2",
        "getUniV2Quote(uint256)": "bf822c55",
        "iUniswapLPOracleFactory()": "0e43d40b",
        "owner()": "8da5cb5b",
        "renounceOwnership()": "715018a6",
        "setRouters(uint256,address,address,address)": "bb75df5b",
        "transferOwnership(address)": "f2fde38b",
        "viewUnderlyingPrice(address,uint256)": "20e18051"
    },
    "gasEstimates": {
        "creation": {
            "codeDepositCost": "737200",
            "executionCost": "infinite",
            "totalCost": "infinite"
        },
        "external": {
            "CURVE_ROUTER()": "2392",
            "SOLIDLY_ROUTER()": "2372",
            "SPOOKY_ROUTER()": "2393",
            "chainRouters(uint256)": "6847",
            "findOptimalSwap(address,address,uint256,uint256)": "infinite",
            "getChainID()": "214",
            "getCurveQuote(uint256)": "6852",
            "getSolidlyQuote(uint256)": "6874",
            "getUnderlyingPrice(address,uint256)": "infinite",
            "getUniV2Quote(uint256)": "infinite",
            "iUniswapLPOracleFactory()": "2350",
            "owner()": "2343",
            "renounceOwnership()": "28206",
            "setRouters(uint256,address,address,address)": "infinite",
            "transferOwnership(address)": "infinite",
            "viewUnderlyingPrice(address,uint256)": "infinite"
        }
    }
}